{"contracts/SensorDataStorage.sol":{"SensorDataStorage":{"abi":[{"anonymous":false,"inputs":[{"indexed":true,"internalType":"address","name":"sensor","type":"address"},{"indexed":false,"internalType":"uint256","name":"timestamp","type":"uint256"},{"indexed":false,"internalType":"string","name":"dataCID","type":"string"}],"name":"DataStored","type":"event"},{"inputs":[{"internalType":"address","name":"_sensor","type":"address"}],"name":"getSensorData","outputs":[{"components":[{"internalType":"uint256","name":"timestamp","type":"uint256"},{"internalType":"string","name":"dataCID","type":"string"}],"internalType":"struct SensorDataStorage.SensorData[]","name":"","type":"tuple[]"}],"stateMutability":"view","type":"function"},{"inputs":[{"internalType":"string","name":"_dataCID","type":"string"}],"name":"storeSensorData","outputs":[],"stateMutability":"nonpayable","type":"function"}],"evm":{"bytecode":{"linkReferences":{},"object":"6080604052348015600f57600080fd5b50610a358061001f6000396000f3fe608060405234801561001057600080fd5b50600436106100365760003560e01c806329580ded1461003b578063ee6b07b11461006b575b600080fd5b61005560048036038101906100509190610323565b610087565b60405161006291906104f8565b60405180910390f35b6100856004803603810190610080919061064f565b6101c0565b005b60606000808373ffffffffffffffffffffffffffffffffffffffff1673ffffffffffffffffffffffffffffffffffffffff168152602001908152602001600020805480602002602001604051908101604052809291908181526020016000905b828210156101b5578382906000526020600020906002020160405180604001604052908160008201548152602001600182018054610124906106c7565b80601f0160208091040260200160405190810160405280929190818152602001828054610150906106c7565b801561019d5780601f106101725761010080835404028352916020019161019d565b820191906000526020600020905b81548152906001019060200180831161018057829003601f168201915b505050505081525050815260200190600101906100e7565b505050509050919050565b6000803373ffffffffffffffffffffffffffffffffffffffff1673ffffffffffffffffffffffffffffffffffffffff168152602001908152602001600020604051806040016040528042815260200183815250908060018154018082558091505060019003906000526020600020906002020160009091909190915060008201518160000155602082015181600101908161025b91906108a4565b5050503373ffffffffffffffffffffffffffffffffffffffff167ff695ec15d305120cded68d2c6783c1b79fdb02dd3da48ca04f42ce2d0de7eb9a42836040516102a69291906109cf565b60405180910390a250565b6000604051905090565b600080fd5b600080fd5b600073ffffffffffffffffffffffffffffffffffffffff82169050919050565b60006102f0826102c5565b9050919050565b610300816102e5565b811461030b57600080fd5b50565b60008135905061031d816102f7565b92915050565b600060208284031215610339576103386102bb565b5b60006103478482850161030e565b91505092915050565b600081519050919050565b600082825260208201905092915050565b6000819050602082019050919050565b6000819050919050565b61038f8161037c565b82525050565b600081519050919050565b600082825260208201905092915050565b60005b838110156103cf5780820151818401526020810190506103b4565b60008484015250505050565b6000601f19601f8301169050919050565b60006103f782610395565b61040181856103a0565b93506104118185602086016103b1565b61041a816103db565b840191505092915050565b600060408301600083015161043d6000860182610386565b506020830151848203602086015261045582826103ec565b9150508091505092915050565b600061046e8383610425565b905092915050565b6000602082019050919050565b600061048e82610350565b610498818561035b565b9350836020820285016104aa8561036c565b8060005b858110156104e657848403895281516104c78582610462565b94506104d283610476565b925060208a019950506001810190506104ae565b50829750879550505050505092915050565b600060208201905081810360008301526105128184610483565b905092915050565b600080fd5b600080fd5b7f4e487b7100000000000000000000000000000000000000000000000000000000600052604160045260246000fd5b61055c826103db565b810181811067ffffffffffffffff8211171561057b5761057a610524565b5b80604052505050565b600061058e6102b1565b905061059a8282610553565b919050565b600067ffffffffffffffff8211156105ba576105b9610524565b5b6105c3826103db565b9050602081019050919050565b82818337600083830152505050565b60006105f26105ed8461059f565b610584565b90508281526020810184848401111561060e5761060d61051f565b5b6106198482856105d0565b509392505050565b600082601f8301126106365761063561051a565b5b81356106468482602086016105df565b91505092915050565b600060208284031215610665576106646102bb565b5b600082013567ffffffffffffffff811115610683576106826102c0565b5b61068f84828501610621565b91505092915050565b7f4e487b7100000000000000000000000000000000000000000000000000000000600052602260045260246000fd5b600060028204905060018216806106df57607f821691505b6020821081036106f2576106f1610698565b5b50919050565b60008190508160005260206000209050919050565b60006020601f8301049050919050565b600082821b905092915050565b60006008830261075a7fffffffffffffffffffffffffffffffffffffffffffffffffffffffffffffffff8261071d565b610764868361071d565b95508019841693508086168417925050509392505050565b6000819050919050565b60006107a161079c6107978461037c565b61077c565b61037c565b9050919050565b6000819050919050565b6107bb83610786565b6107cf6107c7826107a8565b84845461072a565b825550505050565b600090565b6107e46107d7565b6107ef8184846107b2565b505050565b5b81811015610813576108086000826107dc565b6001810190506107f5565b5050565b601f82111561085857610829816106f8565b6108328461070d565b81016020851015610841578190505b61085561084d8561070d565b8301826107f4565b50505b505050565b600082821c905092915050565b600061087b6000198460080261085d565b1980831691505092915050565b6000610894838361086a565b9150826002028217905092915050565b6108ad82610395565b67ffffffffffffffff8111156108c6576108c5610524565b5b6108d082546106c7565b6108db828285610817565b600060209050601f83116001811461090e57600084156108fc578287015190505b6109068582610888565b86555061096e565b601f19841661091c866106f8565b60005b828110156109445784890151825560018201915060208501945060208101905061091f565b86831015610961578489015161095d601f89168261086a565b8355505b6001600288020188555050505b505050505050565b61097f8161037c565b82525050565b600082825260208201905092915050565b60006109a182610395565b6109ab8185610985565b93506109bb8185602086016103b1565b6109c4816103db565b840191505092915050565b60006040820190506109e46000830185610976565b81810360208301526109f68184610996565b9050939250505056fea26469706673582212200ef61877c33921271eb15a4d70ae39d0a22735e86145b8d8a7e2652f81e7fa3464736f6c634300081c0033","opcodes":"PUSH1 0x80 PUSH1 0x40 MSTORE CALLVALUE DUP1 ISZERO PUSH1 0xF JUMPI PUSH1 0x0 DUP1 REVERT JUMPDEST POP PUSH2 0xA35 DUP1 PUSH2 0x1F PUSH1 0x0 CODECOPY PUSH1 0x0 RETURN INVALID PUSH1 0x80 PUSH1 0x40 MSTORE CALLVALUE DUP1 ISZERO PUSH2 0x10 JUMPI PUSH1 0x0 DUP1 REVERT JUMPDEST POP PUSH1 0x4 CALLDATASIZE LT PUSH2 0x36 JUMPI PUSH1 0x0 CALLDATALOAD PUSH1 0xE0 SHR DUP1 PUSH4 0x29580DED EQ PUSH2 0x3B JUMPI DUP1 PUSH4 0xEE6B07B1 EQ PUSH2 0x6B JUMPI JUMPDEST PUSH1 0x0 DUP1 REVERT JUMPDEST PUSH2 0x55 PUSH1 0x4 DUP1 CALLDATASIZE SUB DUP2 ADD SWAP1 PUSH2 0x50 SWAP2 SWAP1 PUSH2 0x323 JUMP JUMPDEST PUSH2 0x87 JUMP JUMPDEST PUSH1 0x40 MLOAD PUSH2 0x62 SWAP2 SWAP1 PUSH2 0x4F8 JUMP JUMPDEST PUSH1 0x40 MLOAD DUP1 SWAP2 SUB SWAP1 RETURN JUMPDEST PUSH2 0x85 PUSH1 0x4 DUP1 CALLDATASIZE SUB DUP2 ADD SWAP1 PUSH2 0x80 SWAP2 SWAP1 PUSH2 0x64F JUMP JUMPDEST PUSH2 0x1C0 JUMP JUMPDEST STOP JUMPDEST PUSH1 0x60 PUSH1 0x0 DUP1 DUP4 PUSH20 0xFFFFFFFFFFFFFFFFFFFFFFFFFFFFFFFFFFFFFFFF AND PUSH20 0xFFFFFFFFFFFFFFFFFFFFFFFFFFFFFFFFFFFFFFFF AND DUP2 MSTORE PUSH1 0x20 ADD SWAP1 DUP2 MSTORE PUSH1 0x20 ADD PUSH1 0x0 KECCAK256 DUP1 SLOAD DUP1 PUSH1 0x20 MUL PUSH1 0x20 ADD PUSH1 0x40 MLOAD SWAP1 DUP2 ADD PUSH1 0x40 MSTORE DUP1 SWAP3 SWAP2 SWAP1 DUP2 DUP2 MSTORE PUSH1 0x20 ADD PUSH1 0x0 SWAP1 JUMPDEST DUP3 DUP3 LT ISZERO PUSH2 0x1B5 JUMPI DUP4 DUP3 SWAP1 PUSH1 0x0 MSTORE PUSH1 0x20 PUSH1 0x0 KECCAK256 SWAP1 PUSH1 0x2 MUL ADD PUSH1 0x40 MLOAD DUP1 PUSH1 0x40 ADD PUSH1 0x40 MSTORE SWAP1 DUP2 PUSH1 0x0 DUP3 ADD SLOAD DUP2 MSTORE PUSH1 0x20 ADD PUSH1 0x1 DUP3 ADD DUP1 SLOAD PUSH2 0x124 SWAP1 PUSH2 0x6C7 JUMP JUMPDEST DUP1 PUSH1 0x1F ADD PUSH1 0x20 DUP1 SWAP2 DIV MUL PUSH1 0x20 ADD PUSH1 0x40 MLOAD SWAP1 DUP2 ADD PUSH1 0x40 MSTORE DUP1 SWAP3 SWAP2 SWAP1 DUP2 DUP2 MSTORE PUSH1 0x20 ADD DUP3 DUP1 SLOAD PUSH2 0x150 SWAP1 PUSH2 0x6C7 JUMP JUMPDEST DUP1 ISZERO PUSH2 0x19D JUMPI DUP1 PUSH1 0x1F LT PUSH2 0x172 JUMPI PUSH2 0x100 DUP1 DUP4 SLOAD DIV MUL DUP4 MSTORE SWAP2 PUSH1 0x20 ADD SWAP2 PUSH2 0x19D JUMP JUMPDEST DUP3 ADD SWAP2 SWAP1 PUSH1 0x0 MSTORE PUSH1 0x20 PUSH1 0x0 KECCAK256 SWAP1 JUMPDEST DUP2 SLOAD DUP2 MSTORE SWAP1 PUSH1 0x1 ADD SWAP1 PUSH1 0x20 ADD DUP1 DUP4 GT PUSH2 0x180 JUMPI DUP3 SWAP1 SUB PUSH1 0x1F AND DUP3 ADD SWAP2 JUMPDEST POP POP POP POP POP DUP2 MSTORE POP POP DUP2 MSTORE PUSH1 0x20 ADD SWAP1 PUSH1 0x1 ADD SWAP1 PUSH2 0xE7 JUMP JUMPDEST POP POP POP POP SWAP1 POP SWAP2 SWAP1 POP JUMP JUMPDEST PUSH1 0x0 DUP1 CALLER PUSH20 0xFFFFFFFFFFFFFFFFFFFFFFFFFFFFFFFFFFFFFFFF AND PUSH20 0xFFFFFFFFFFFFFFFFFFFFFFFFFFFFFFFFFFFFFFFF AND DUP2 MSTORE PUSH1 0x20 ADD SWAP1 DUP2 MSTORE PUSH1 0x20 ADD PUSH1 0x0 KECCAK256 PUSH1 0x40 MLOAD DUP1 PUSH1 0x40 ADD PUSH1 0x40 MSTORE DUP1 TIMESTAMP DUP2 MSTORE PUSH1 0x20 ADD DUP4 DUP2 MSTORE POP SWAP1 DUP1 PUSH1 0x1 DUP2 SLOAD ADD DUP1 DUP3 SSTORE DUP1 SWAP2 POP POP PUSH1 0x1 SWAP1 SUB SWAP1 PUSH1 0x0 MSTORE PUSH1 0x20 PUSH1 0x0 KECCAK256 SWAP1 PUSH1 0x2 MUL ADD PUSH1 0x0 SWAP1 SWAP2 SWAP1 SWAP2 SWAP1 SWAP2 POP PUSH1 0x0 DUP3 ADD MLOAD DUP2 PUSH1 0x0 ADD SSTORE PUSH1 0x20 DUP3 ADD MLOAD DUP2 PUSH1 0x1 ADD SWAP1 DUP2 PUSH2 0x25B SWAP2 SWAP1 PUSH2 0x8A4 JUMP JUMPDEST POP POP POP CALLER PUSH20 0xFFFFFFFFFFFFFFFFFFFFFFFFFFFFFFFFFFFFFFFF AND PUSH32 0xF695EC15D305120CDED68D2C6783C1B79FDB02DD3DA48CA04F42CE2D0DE7EB9A TIMESTAMP DUP4 PUSH1 0x40 MLOAD PUSH2 0x2A6 SWAP3 SWAP2 SWAP1 PUSH2 0x9CF JUMP JUMPDEST PUSH1 0x40 MLOAD DUP1 SWAP2 SUB SWAP1 LOG2 POP JUMP JUMPDEST PUSH1 0x0 PUSH1 0x40 MLOAD SWAP1 POP SWAP1 JUMP JUMPDEST PUSH1 0x0 DUP1 REVERT JUMPDEST PUSH1 0x0 DUP1 REVERT JUMPDEST PUSH1 0x0 PUSH20 0xFFFFFFFFFFFFFFFFFFFFFFFFFFFFFFFFFFFFFFFF DUP3 AND SWAP1 POP SWAP2 SWAP1 POP JUMP JUMPDEST PUSH1 0x0 PUSH2 0x2F0 DUP3 PUSH2 0x2C5 JUMP JUMPDEST SWAP1 POP SWAP2 SWAP1 POP JUMP JUMPDEST PUSH2 0x300 DUP2 PUSH2 0x2E5 JUMP JUMPDEST DUP2 EQ PUSH2 0x30B JUMPI PUSH1 0x0 DUP1 REVERT JUMPDEST POP JUMP JUMPDEST PUSH1 0x0 DUP2 CALLDATALOAD SWAP1 POP PUSH2 0x31D DUP2 PUSH2 0x2F7 JUMP JUMPDEST SWAP3 SWAP2 POP POP JUMP JUMPDEST PUSH1 0x0 PUSH1 0x20 DUP3 DUP5 SUB SLT ISZERO PUSH2 0x339 JUMPI PUSH2 0x338 PUSH2 0x2BB JUMP JUMPDEST JUMPDEST PUSH1 0x0 PUSH2 0x347 DUP5 DUP3 DUP6 ADD PUSH2 0x30E JUMP JUMPDEST SWAP2 POP POP SWAP3 SWAP2 POP POP JUMP JUMPDEST PUSH1 0x0 DUP2 MLOAD SWAP1 POP SWAP2 SWAP1 POP JUMP JUMPDEST PUSH1 0x0 DUP3 DUP3 MSTORE PUSH1 0x20 DUP3 ADD SWAP1 POP SWAP3 SWAP2 POP POP JUMP JUMPDEST PUSH1 0x0 DUP2 SWAP1 POP PUSH1 0x20 DUP3 ADD SWAP1 POP SWAP2 SWAP1 POP JUMP JUMPDEST PUSH1 0x0 DUP2 SWAP1 POP SWAP2 SWAP1 POP JUMP JUMPDEST PUSH2 0x38F DUP2 PUSH2 0x37C JUMP JUMPDEST DUP3 MSTORE POP POP JUMP JUMPDEST PUSH1 0x0 DUP2 MLOAD SWAP1 POP SWAP2 SWAP1 POP JUMP JUMPDEST PUSH1 0x0 DUP3 DUP3 MSTORE PUSH1 0x20 DUP3 ADD SWAP1 POP SWAP3 SWAP2 POP POP JUMP JUMPDEST PUSH1 0x0 JUMPDEST DUP4 DUP2 LT ISZERO PUSH2 0x3CF JUMPI DUP1 DUP3 ADD MLOAD DUP2 DUP5 ADD MSTORE PUSH1 0x20 DUP2 ADD SWAP1 POP PUSH2 0x3B4 JUMP JUMPDEST PUSH1 0x0 DUP5 DUP5 ADD MSTORE POP POP POP POP JUMP JUMPDEST PUSH1 0x0 PUSH1 0x1F NOT PUSH1 0x1F DUP4 ADD AND SWAP1 POP SWAP2 SWAP1 POP JUMP JUMPDEST PUSH1 0x0 PUSH2 0x3F7 DUP3 PUSH2 0x395 JUMP JUMPDEST PUSH2 0x401 DUP2 DUP6 PUSH2 0x3A0 JUMP JUMPDEST SWAP4 POP PUSH2 0x411 DUP2 DUP6 PUSH1 0x20 DUP7 ADD PUSH2 0x3B1 JUMP JUMPDEST PUSH2 0x41A DUP2 PUSH2 0x3DB JUMP JUMPDEST DUP5 ADD SWAP2 POP POP SWAP3 SWAP2 POP POP JUMP JUMPDEST PUSH1 0x0 PUSH1 0x40 DUP4 ADD PUSH1 0x0 DUP4 ADD MLOAD PUSH2 0x43D PUSH1 0x0 DUP7 ADD DUP3 PUSH2 0x386 JUMP JUMPDEST POP PUSH1 0x20 DUP4 ADD MLOAD DUP5 DUP3 SUB PUSH1 0x20 DUP7 ADD MSTORE PUSH2 0x455 DUP3 DUP3 PUSH2 0x3EC JUMP JUMPDEST SWAP2 POP POP DUP1 SWAP2 POP POP SWAP3 SWAP2 POP POP JUMP JUMPDEST PUSH1 0x0 PUSH2 0x46E DUP4 DUP4 PUSH2 0x425 JUMP JUMPDEST SWAP1 POP SWAP3 SWAP2 POP POP JUMP JUMPDEST PUSH1 0x0 PUSH1 0x20 DUP3 ADD SWAP1 POP SWAP2 SWAP1 POP JUMP JUMPDEST PUSH1 0x0 PUSH2 0x48E DUP3 PUSH2 0x350 JUMP JUMPDEST PUSH2 0x498 DUP2 DUP6 PUSH2 0x35B JUMP JUMPDEST SWAP4 POP DUP4 PUSH1 0x20 DUP3 MUL DUP6 ADD PUSH2 0x4AA DUP6 PUSH2 0x36C JUMP JUMPDEST DUP1 PUSH1 0x0 JUMPDEST DUP6 DUP2 LT ISZERO PUSH2 0x4E6 JUMPI DUP5 DUP5 SUB DUP10 MSTORE DUP2 MLOAD PUSH2 0x4C7 DUP6 DUP3 PUSH2 0x462 JUMP JUMPDEST SWAP5 POP PUSH2 0x4D2 DUP4 PUSH2 0x476 JUMP JUMPDEST SWAP3 POP PUSH1 0x20 DUP11 ADD SWAP10 POP POP PUSH1 0x1 DUP2 ADD SWAP1 POP PUSH2 0x4AE JUMP JUMPDEST POP DUP3 SWAP8 POP DUP8 SWAP6 POP POP POP POP POP POP SWAP3 SWAP2 POP POP JUMP JUMPDEST PUSH1 0x0 PUSH1 0x20 DUP3 ADD SWAP1 POP DUP2 DUP2 SUB PUSH1 0x0 DUP4 ADD MSTORE PUSH2 0x512 DUP2 DUP5 PUSH2 0x483 JUMP JUMPDEST SWAP1 POP SWAP3 SWAP2 POP POP JUMP JUMPDEST PUSH1 0x0 DUP1 REVERT JUMPDEST PUSH1 0x0 DUP1 REVERT JUMPDEST PUSH32 0x4E487B7100000000000000000000000000000000000000000000000000000000 PUSH1 0x0 MSTORE PUSH1 0x41 PUSH1 0x4 MSTORE PUSH1 0x24 PUSH1 0x0 REVERT JUMPDEST PUSH2 0x55C DUP3 PUSH2 0x3DB JUMP JUMPDEST DUP2 ADD DUP2 DUP2 LT PUSH8 0xFFFFFFFFFFFFFFFF DUP3 GT OR ISZERO PUSH2 0x57B JUMPI PUSH2 0x57A PUSH2 0x524 JUMP JUMPDEST JUMPDEST DUP1 PUSH1 0x40 MSTORE POP POP POP JUMP JUMPDEST PUSH1 0x0 PUSH2 0x58E PUSH2 0x2B1 JUMP JUMPDEST SWAP1 POP PUSH2 0x59A DUP3 DUP3 PUSH2 0x553 JUMP JUMPDEST SWAP2 SWAP1 POP JUMP JUMPDEST PUSH1 0x0 PUSH8 0xFFFFFFFFFFFFFFFF DUP3 GT ISZERO PUSH2 0x5BA JUMPI PUSH2 0x5B9 PUSH2 0x524 JUMP JUMPDEST JUMPDEST PUSH2 0x5C3 DUP3 PUSH2 0x3DB JUMP JUMPDEST SWAP1 POP PUSH1 0x20 DUP2 ADD SWAP1 POP SWAP2 SWAP1 POP JUMP JUMPDEST DUP3 DUP2 DUP4 CALLDATACOPY PUSH1 0x0 DUP4 DUP4 ADD MSTORE POP POP POP JUMP JUMPDEST PUSH1 0x0 PUSH2 0x5F2 PUSH2 0x5ED DUP5 PUSH2 0x59F JUMP JUMPDEST PUSH2 0x584 JUMP JUMPDEST SWAP1 POP DUP3 DUP2 MSTORE PUSH1 0x20 DUP2 ADD DUP5 DUP5 DUP5 ADD GT ISZERO PUSH2 0x60E JUMPI PUSH2 0x60D PUSH2 0x51F JUMP JUMPDEST JUMPDEST PUSH2 0x619 DUP5 DUP3 DUP6 PUSH2 0x5D0 JUMP JUMPDEST POP SWAP4 SWAP3 POP POP POP JUMP JUMPDEST PUSH1 0x0 DUP3 PUSH1 0x1F DUP4 ADD SLT PUSH2 0x636 JUMPI PUSH2 0x635 PUSH2 0x51A JUMP JUMPDEST JUMPDEST DUP2 CALLDATALOAD PUSH2 0x646 DUP5 DUP3 PUSH1 0x20 DUP7 ADD PUSH2 0x5DF JUMP JUMPDEST SWAP2 POP POP SWAP3 SWAP2 POP POP JUMP JUMPDEST PUSH1 0x0 PUSH1 0x20 DUP3 DUP5 SUB SLT ISZERO PUSH2 0x665 JUMPI PUSH2 0x664 PUSH2 0x2BB JUMP JUMPDEST JUMPDEST PUSH1 0x0 DUP3 ADD CALLDATALOAD PUSH8 0xFFFFFFFFFFFFFFFF DUP2 GT ISZERO PUSH2 0x683 JUMPI PUSH2 0x682 PUSH2 0x2C0 JUMP JUMPDEST JUMPDEST PUSH2 0x68F DUP5 DUP3 DUP6 ADD PUSH2 0x621 JUMP JUMPDEST SWAP2 POP POP SWAP3 SWAP2 POP POP JUMP JUMPDEST PUSH32 0x4E487B7100000000000000000000000000000000000000000000000000000000 PUSH1 0x0 MSTORE PUSH1 0x22 PUSH1 0x4 MSTORE PUSH1 0x24 PUSH1 0x0 REVERT JUMPDEST PUSH1 0x0 PUSH1 0x2 DUP3 DIV SWAP1 POP PUSH1 0x1 DUP3 AND DUP1 PUSH2 0x6DF JUMPI PUSH1 0x7F DUP3 AND SWAP2 POP JUMPDEST PUSH1 0x20 DUP3 LT DUP2 SUB PUSH2 0x6F2 JUMPI PUSH2 0x6F1 PUSH2 0x698 JUMP JUMPDEST JUMPDEST POP SWAP2 SWAP1 POP JUMP JUMPDEST PUSH1 0x0 DUP2 SWAP1 POP DUP2 PUSH1 0x0 MSTORE PUSH1 0x20 PUSH1 0x0 KECCAK256 SWAP1 POP SWAP2 SWAP1 POP JUMP JUMPDEST PUSH1 0x0 PUSH1 0x20 PUSH1 0x1F DUP4 ADD DIV SWAP1 POP SWAP2 SWAP1 POP JUMP JUMPDEST PUSH1 0x0 DUP3 DUP3 SHL SWAP1 POP SWAP3 SWAP2 POP POP JUMP JUMPDEST PUSH1 0x0 PUSH1 0x8 DUP4 MUL PUSH2 0x75A PUSH32 0xFFFFFFFFFFFFFFFFFFFFFFFFFFFFFFFFFFFFFFFFFFFFFFFFFFFFFFFFFFFFFFFF DUP3 PUSH2 0x71D JUMP JUMPDEST PUSH2 0x764 DUP7 DUP4 PUSH2 0x71D JUMP JUMPDEST SWAP6 POP DUP1 NOT DUP5 AND SWAP4 POP DUP1 DUP7 AND DUP5 OR SWAP3 POP POP POP SWAP4 SWAP3 POP POP POP JUMP JUMPDEST PUSH1 0x0 DUP2 SWAP1 POP SWAP2 SWAP1 POP JUMP JUMPDEST PUSH1 0x0 PUSH2 0x7A1 PUSH2 0x79C PUSH2 0x797 DUP5 PUSH2 0x37C JUMP JUMPDEST PUSH2 0x77C JUMP JUMPDEST PUSH2 0x37C JUMP JUMPDEST SWAP1 POP SWAP2 SWAP1 POP JUMP JUMPDEST PUSH1 0x0 DUP2 SWAP1 POP SWAP2 SWAP1 POP JUMP JUMPDEST PUSH2 0x7BB DUP4 PUSH2 0x786 JUMP JUMPDEST PUSH2 0x7CF PUSH2 0x7C7 DUP3 PUSH2 0x7A8 JUMP JUMPDEST DUP5 DUP5 SLOAD PUSH2 0x72A JUMP JUMPDEST DUP3 SSTORE POP POP POP POP JUMP JUMPDEST PUSH1 0x0 SWAP1 JUMP JUMPDEST PUSH2 0x7E4 PUSH2 0x7D7 JUMP JUMPDEST PUSH2 0x7EF DUP2 DUP5 DUP5 PUSH2 0x7B2 JUMP JUMPDEST POP POP POP JUMP JUMPDEST JUMPDEST DUP2 DUP2 LT ISZERO PUSH2 0x813 JUMPI PUSH2 0x808 PUSH1 0x0 DUP3 PUSH2 0x7DC JUMP JUMPDEST PUSH1 0x1 DUP2 ADD SWAP1 POP PUSH2 0x7F5 JUMP JUMPDEST POP POP JUMP JUMPDEST PUSH1 0x1F DUP3 GT ISZERO PUSH2 0x858 JUMPI PUSH2 0x829 DUP2 PUSH2 0x6F8 JUMP JUMPDEST PUSH2 0x832 DUP5 PUSH2 0x70D JUMP JUMPDEST DUP2 ADD PUSH1 0x20 DUP6 LT ISZERO PUSH2 0x841 JUMPI DUP2 SWAP1 POP JUMPDEST PUSH2 0x855 PUSH2 0x84D DUP6 PUSH2 0x70D JUMP JUMPDEST DUP4 ADD DUP3 PUSH2 0x7F4 JUMP JUMPDEST POP POP JUMPDEST POP POP POP JUMP JUMPDEST PUSH1 0x0 DUP3 DUP3 SHR SWAP1 POP SWAP3 SWAP2 POP POP JUMP JUMPDEST PUSH1 0x0 PUSH2 0x87B PUSH1 0x0 NOT DUP5 PUSH1 0x8 MUL PUSH2 0x85D JUMP JUMPDEST NOT DUP1 DUP4 AND SWAP2 POP POP SWAP3 SWAP2 POP POP JUMP JUMPDEST PUSH1 0x0 PUSH2 0x894 DUP4 DUP4 PUSH2 0x86A JUMP JUMPDEST SWAP2 POP DUP3 PUSH1 0x2 MUL DUP3 OR SWAP1 POP SWAP3 SWAP2 POP POP JUMP JUMPDEST PUSH2 0x8AD DUP3 PUSH2 0x395 JUMP JUMPDEST PUSH8 0xFFFFFFFFFFFFFFFF DUP2 GT ISZERO PUSH2 0x8C6 JUMPI PUSH2 0x8C5 PUSH2 0x524 JUMP JUMPDEST JUMPDEST PUSH2 0x8D0 DUP3 SLOAD PUSH2 0x6C7 JUMP JUMPDEST PUSH2 0x8DB DUP3 DUP3 DUP6 PUSH2 0x817 JUMP JUMPDEST PUSH1 0x0 PUSH1 0x20 SWAP1 POP PUSH1 0x1F DUP4 GT PUSH1 0x1 DUP2 EQ PUSH2 0x90E JUMPI PUSH1 0x0 DUP5 ISZERO PUSH2 0x8FC JUMPI DUP3 DUP8 ADD MLOAD SWAP1 POP JUMPDEST PUSH2 0x906 DUP6 DUP3 PUSH2 0x888 JUMP JUMPDEST DUP7 SSTORE POP PUSH2 0x96E JUMP JUMPDEST PUSH1 0x1F NOT DUP5 AND PUSH2 0x91C DUP7 PUSH2 0x6F8 JUMP JUMPDEST PUSH1 0x0 JUMPDEST DUP3 DUP2 LT ISZERO PUSH2 0x944 JUMPI DUP5 DUP10 ADD MLOAD DUP3 SSTORE PUSH1 0x1 DUP3 ADD SWAP2 POP PUSH1 0x20 DUP6 ADD SWAP5 POP PUSH1 0x20 DUP2 ADD SWAP1 POP PUSH2 0x91F JUMP JUMPDEST DUP7 DUP4 LT ISZERO PUSH2 0x961 JUMPI DUP5 DUP10 ADD MLOAD PUSH2 0x95D PUSH1 0x1F DUP10 AND DUP3 PUSH2 0x86A JUMP JUMPDEST DUP4 SSTORE POP JUMPDEST PUSH1 0x1 PUSH1 0x2 DUP9 MUL ADD DUP9 SSTORE POP POP POP JUMPDEST POP POP POP POP POP POP JUMP JUMPDEST PUSH2 0x97F DUP2 PUSH2 0x37C JUMP JUMPDEST DUP3 MSTORE POP POP JUMP JUMPDEST PUSH1 0x0 DUP3 DUP3 MSTORE PUSH1 0x20 DUP3 ADD SWAP1 POP SWAP3 SWAP2 POP POP JUMP JUMPDEST PUSH1 0x0 PUSH2 0x9A1 DUP3 PUSH2 0x395 JUMP JUMPDEST PUSH2 0x9AB DUP2 DUP6 PUSH2 0x985 JUMP JUMPDEST SWAP4 POP PUSH2 0x9BB DUP2 DUP6 PUSH1 0x20 DUP7 ADD PUSH2 0x3B1 JUMP JUMPDEST PUSH2 0x9C4 DUP2 PUSH2 0x3DB JUMP JUMPDEST DUP5 ADD SWAP2 POP POP SWAP3 SWAP2 POP POP JUMP JUMPDEST PUSH1 0x0 PUSH1 0x40 DUP3 ADD SWAP1 POP PUSH2 0x9E4 PUSH1 0x0 DUP4 ADD DUP6 PUSH2 0x976 JUMP JUMPDEST DUP2 DUP2 SUB PUSH1 0x20 DUP4 ADD MSTORE PUSH2 0x9F6 DUP2 DUP5 PUSH2 0x996 JUMP JUMPDEST SWAP1 POP SWAP4 SWAP3 POP POP POP JUMP INVALID LOG2 PUSH5 0x6970667358 0x22 SLT KECCAK256 0xE 0xF6 XOR PUSH24 0xC33921271EB15A4D70AE39D0A22735E86145B8D8A7E2652F DUP2 0xE7 STATICCALL CALLVALUE PUSH5 0x736F6C6343 STOP ADDMOD SHR STOP CALLER "},"methodIdentifiers":{"getSensorData(address)":"29580ded","storeSensorData(string)":"ee6b07b1"}}}}}