{
  "_format": "hh-sol-artifact-1",
  "contractName": "SensorDataStorage",
  "sourceName": "contracts/SensorDataStorage.sol",
  "abi": [
    {
      "anonymous": false,
      "inputs": [
        {
          "indexed": true,
          "internalType": "address",
          "name": "sensor",
          "type": "address"
        },
        {
          "indexed": false,
          "internalType": "uint256",
          "name": "timestamp",
          "type": "uint256"
        },
        {
          "indexed": false,
          "internalType": "string",
          "name": "dataCID",
          "type": "string"
        }
      ],
      "name": "DataStored",
      "type": "event"
    },
    {
      "inputs": [
        {
          "internalType": "address",
          "name": "_sensor",
          "type": "address"
        }
      ],
      "name": "getSensorData",
      "outputs": [
        {
          "components": [
            {
              "internalType": "uint256",
              "name": "timestamp",
              "type": "uint256"
            },
            {
              "internalType": "string",
              "name": "dataCID",
              "type": "string"
            }
          ],
          "internalType": "struct SensorDataStorage.SensorData[]",
          "name": "",
          "type": "tuple[]"
        }
      ],
      "stateMutability": "view",
      "type": "function"
    },
    {
      "inputs": [
        {
          "internalType": "string",
          "name": "_dataCID",
          "type": "string"
        }
      ],
      "name": "storeSensorData",
      "outputs": [],
      "stateMutability": "nonpayable",
      "type": "function"
    }
  ],
  "bytecode": "0x6080604052348015600f57600080fd5b50610a358061001f6000396000f3fe608060405234801561001057600080fd5b50600436106100365760003560e01c806329580ded1461003b578063ee6b07b11461006b575b600080fd5b61005560048036038101906100509190610323565b610087565b60405161006291906104f8565b60405180910390f35b6100856004803603810190610080919061064f565b6101c0565b005b60606000808373ffffffffffffffffffffffffffffffffffffffff1673ffffffffffffffffffffffffffffffffffffffff168152602001908152602001600020805480602002602001604051908101604052809291908181526020016000905b828210156101b5578382906000526020600020906002020160405180604001604052908160008201548152602001600182018054610124906106c7565b80601f0160208091040260200160405190810160405280929190818152602001828054610150906106c7565b801561019d5780601f106101725761010080835404028352916020019161019d565b820191906000526020600020905b81548152906001019060200180831161018057829003601f168201915b505050505081525050815260200190600101906100e7565b505050509050919050565b6000803373ffffffffffffffffffffffffffffffffffffffff1673ffffffffffffffffffffffffffffffffffffffff168152602001908152602001600020604051806040016040528042815260200183815250908060018154018082558091505060019003906000526020600020906002020160009091909190915060008201518160000155602082015181600101908161025b91906108a4565b5050503373ffffffffffffffffffffffffffffffffffffffff167ff695ec15d305120cded68d2c6783c1b79fdb02dd3da48ca04f42ce2d0de7eb9a42836040516102a69291906109cf565b60405180910390a250565b6000604051905090565b600080fd5b600080fd5b600073ffffffffffffffffffffffffffffffffffffffff82169050919050565b60006102f0826102c5565b9050919050565b610300816102e5565b811461030b57600080fd5b50565b60008135905061031d816102f7565b92915050565b600060208284031215610339576103386102bb565b5b60006103478482850161030e565b91505092915050565b600081519050919050565b600082825260208201905092915050565b6000819050602082019050919050565b6000819050919050565b61038f8161037c565b82525050565b600081519050919050565b600082825260208201905092915050565b60005b838110156103cf5780820151818401526020810190506103b4565b60008484015250505050565b6000601f19601f8301169050919050565b60006103f782610395565b61040181856103a0565b93506104118185602086016103b1565b61041a816103db565b840191505092915050565b600060408301600083015161043d6000860182610386565b506020830151848203602086015261045582826103ec565b9150508091505092915050565b600061046e8383610425565b905092915050565b6000602082019050919050565b600061048e82610350565b610498818561035b565b9350836020820285016104aa8561036c565b8060005b858110156104e657848403895281516104c78582610462565b94506104d283610476565b925060208a019950506001810190506104ae565b50829750879550505050505092915050565b600060208201905081810360008301526105128184610483565b905092915050565b600080fd5b600080fd5b7f4e487b7100000000000000000000000000000000000000000000000000000000600052604160045260246000fd5b61055c826103db565b810181811067ffffffffffffffff8211171561057b5761057a610524565b5b80604052505050565b600061058e6102b1565b905061059a8282610553565b919050565b600067ffffffffffffffff8211156105ba576105b9610524565b5b6105c3826103db565b9050602081019050919050565b82818337600083830152505050565b60006105f26105ed8461059f565b610584565b90508281526020810184848401111561060e5761060d61051f565b5b6106198482856105d0565b509392505050565b600082601f8301126106365761063561051a565b5b81356106468482602086016105df565b91505092915050565b600060208284031215610665576106646102bb565b5b600082013567ffffffffffffffff811115610683576106826102c0565b5b61068f84828501610621565b91505092915050565b7f4e487b7100000000000000000000000000000000000000000000000000000000600052602260045260246000fd5b600060028204905060018216806106df57607f821691505b6020821081036106f2576106f1610698565b5b50919050565b60008190508160005260206000209050919050565b60006020601f8301049050919050565b600082821b905092915050565b60006008830261075a7fffffffffffffffffffffffffffffffffffffffffffffffffffffffffffffffff8261071d565b610764868361071d565b95508019841693508086168417925050509392505050565b6000819050919050565b60006107a161079c6107978461037c565b61077c565b61037c565b9050919050565b6000819050919050565b6107bb83610786565b6107cf6107c7826107a8565b84845461072a565b825550505050565b600090565b6107e46107d7565b6107ef8184846107b2565b505050565b5b81811015610813576108086000826107dc565b6001810190506107f5565b5050565b601f82111561085857610829816106f8565b6108328461070d565b81016020851015610841578190505b61085561084d8561070d565b8301826107f4565b50505b505050565b600082821c905092915050565b600061087b6000198460080261085d565b1980831691505092915050565b6000610894838361086a565b9150826002028217905092915050565b6108ad82610395565b67ffffffffffffffff8111156108c6576108c5610524565b5b6108d082546106c7565b6108db828285610817565b600060209050601f83116001811461090e57600084156108fc578287015190505b6109068582610888565b86555061096e565b601f19841661091c866106f8565b60005b828110156109445784890151825560018201915060208501945060208101905061091f565b86831015610961578489015161095d601f89168261086a565b8355505b6001600288020188555050505b505050505050565b61097f8161037c565b82525050565b600082825260208201905092915050565b60006109a182610395565b6109ab8185610985565b93506109bb8185602086016103b1565b6109c4816103db565b840191505092915050565b60006040820190506109e46000830185610976565b81810360208301526109f68184610996565b9050939250505056fea26469706673582212200ef61877c33921271eb15a4d70ae39d0a22735e86145b8d8a7e2652f81e7fa3464736f6c634300081c0033",
  "linkReferences": {},
  "deployedLinkReferences": {}
}